{
  "_format": "hh-sol-artifact-1",
  "contractName": "PokemonFactory",
  "sourceName": "contracts/PokemonFactory.sol",
  "abi": [
    {
      "anonymous": false,
      "inputs": [
        {
          "indexed": false,
          "internalType": "uint256",
          "name": "pokemonId",
          "type": "uint256"
        },
        {
          "indexed": false,
          "internalType": "string",
          "name": "name",
          "type": "string"
        },
        {
          "indexed": false,
          "internalType": "uint256",
          "name": "dna",
          "type": "uint256"
        }
      ],
      "name": "NewPokemon",
      "type": "event"
    },
    {
      "inputs": [
        {
          "internalType": "string",
          "name": "_name",
          "type": "string"
        },
        {
          "internalType": "uint256",
          "name": "_dna",
          "type": "uint256"
        }
      ],
      "name": "_createPokemon",
      "outputs": [],
      "stateMutability": "nonpayable",
      "type": "function"
    },
    {
      "inputs": [
        {
          "internalType": "string",
          "name": "_name",
          "type": "string"
        }
      ],
      "name": "createRandomPokemon",
      "outputs": [],
      "stateMutability": "nonpayable",
      "type": "function"
    },
    {
      "inputs": [],
      "name": "getPokemon",
      "outputs": [
        {
          "components": [
            {
              "internalType": "string",
              "name": "name",
              "type": "string"
            },
            {
              "internalType": "uint256",
              "name": "dna",
              "type": "uint256"
            }
          ],
          "internalType": "struct PokemonFactory.Pokemon[]",
          "name": "",
          "type": "tuple[]"
        }
      ],
      "stateMutability": "view",
      "type": "function"
    },
    {
      "inputs": [
        {
          "internalType": "uint256",
          "name": "",
          "type": "uint256"
        }
      ],
      "name": "pokemonToOwner",
      "outputs": [
        {
          "internalType": "address",
          "name": "",
          "type": "address"
        }
      ],
      "stateMutability": "view",
      "type": "function"
    },
    {
      "inputs": [
        {
          "internalType": "uint256",
          "name": "",
          "type": "uint256"
        }
      ],
      "name": "pokemons",
      "outputs": [
        {
          "internalType": "string",
          "name": "name",
          "type": "string"
        },
        {
          "internalType": "uint256",
          "name": "dna",
          "type": "uint256"
        }
      ],
      "stateMutability": "view",
      "type": "function"
    }
  ],
  "bytecode": "0x60806040526010600055600054600a6200001a9190620001be565b6001553480156200002a57600080fd5b506200020f565b7f4e487b7100000000000000000000000000000000000000000000000000000000600052601160045260246000fd5b60008160011c9050919050565b6000808291508390505b6001851115620000bf5780860481111562000097576200009662000031565b5b6001851615620000a75780820291505b8081029050620000b78562000060565b945062000077565b94509492505050565b600082620000da5760019050620001ad565b81620000ea5760009050620001ad565b81600181146200010357600281146200010e5762000144565b6001915050620001ad565b60ff84111562000123576200012262000031565b5b8360020a9150848211156200013d576200013c62000031565b5b50620001ad565b5060208310610133831016604e8410600b84101617156200017e5782820a90508381111562000178576200017762000031565b5b620001ad565b6200018d84848460016200006d565b92509050818404811115620001a757620001a662000031565b5b81810290505b9392505050565b6000819050919050565b6000620001cb82620001b4565b9150620001d883620001b4565b9250620002077fffffffffffffffffffffffffffffffffffffffffffffffffffffffffffffffff8484620000c8565b905092915050565b610e62806200021f6000396000f3fe608060405234801561001057600080fd5b50600436106100575760003560e01c80632f7467b31461005c5780637d2edc911461008c57806385831079146100a857806387e24c72146100d9578063a0329747146100f7575b600080fd5b61007660048036038101906100719190610506565b610113565b6040516100839190610574565b60405180910390f35b6100a660048036038101906100a191906106d5565b610146565b005b6100c260048036038101906100bd9190610506565b6102a5565b6040516100d09291906107bf565b60405180910390f35b6100e1610361565b6040516100ee9190610947565b60405180910390f35b610111600480360381019061010c9190610969565b61045c565b005b60026020528060005260406000206000915054906101000a900473ffffffffffffffffffffffffffffffffffffffff1681565b60046040518060400160405280848152602001838152509080600181540180825580915050600190039060005260206000209060020201600090919091909150600082015181600001908161019b9190610bbe565b50602082015181600101555050600060016004805490506101bc9190610cbf565b9050336002600083815260200190815260200160002060006101000a81548173ffffffffffffffffffffffffffffffffffffffff021916908373ffffffffffffffffffffffffffffffffffffffff160217905550600360003373ffffffffffffffffffffffffffffffffffffffff1673ffffffffffffffffffffffffffffffffffffffff168152602001908152602001600020600081548092919061026090610cf3565b91905055507fb2ddd0094c7d8b02387161898cbaa1bbcb4cee4731fdeceb76548071724adcd281848460405161029893929190610d3b565b60405180910390a1505050565b600481815481106102b557600080fd5b90600052602060002090600202016000915090508060000180546102d8906109e1565b80601f0160208091040260200160405190810160405280929190818152602001828054610304906109e1565b80156103515780601f1061032657610100808354040283529160200191610351565b820191906000526020600020905b81548152906001019060200180831161033457829003601f168201915b5050505050908060010154905082565b60606004805480602002602001604051908101604052809291908181526020016000905b8282101561045357838290600052602060002090600202016040518060400160405290816000820180546103b8906109e1565b80601f01602080910402602001604051908101604052809291908181526020018280546103e4906109e1565b80156104315780601f1061040657610100808354040283529160200191610431565b820191906000526020600020905b81548152906001019060200180831161041457829003601f168201915b5050505050815260200160018201548152505081526020019060010190610385565b50505050905090565b600061046782610477565b90506104738282610146565b5050565b6000808260405160200161048b9190610db5565b6040516020818303038152906040528051906020012060001c9050600154816104b49190610dfb565b915050919050565b6000604051905090565b600080fd5b600080fd5b6000819050919050565b6104e3816104d0565b81146104ee57600080fd5b50565b600081359050610500816104da565b92915050565b60006020828403121561051c5761051b6104c6565b5b600061052a848285016104f1565b91505092915050565b600073ffffffffffffffffffffffffffffffffffffffff82169050919050565b600061055e82610533565b9050919050565b61056e81610553565b82525050565b60006020820190506105896000830184610565565b92915050565b600080fd5b600080fd5b6000601f19601f8301169050919050565b7f4e487b7100000000000000000000000000000000000000000000000000000000600052604160045260246000fd5b6105e282610599565b810181811067ffffffffffffffff82111715610601576106006105aa565b5b80604052505050565b60006106146104bc565b905061062082826105d9565b919050565b600067ffffffffffffffff8211156106405761063f6105aa565b5b61064982610599565b9050602081019050919050565b82818337600083830152505050565b600061067861067384610625565b61060a565b90508281526020810184848401111561069457610693610594565b5b61069f848285610656565b509392505050565b600082601f8301126106bc576106bb61058f565b5b81356106cc848260208601610665565b91505092915050565b600080604083850312156106ec576106eb6104c6565b5b600083013567ffffffffffffffff81111561070a576107096104cb565b5b610716858286016106a7565b9250506020610727858286016104f1565b9150509250929050565b600081519050919050565b600082825260208201905092915050565b60005b8381101561076b578082015181840152602081019050610750565b60008484015250505050565b600061078282610731565b61078c818561073c565b935061079c81856020860161074d565b6107a581610599565b840191505092915050565b6107b9816104d0565b82525050565b600060408201905081810360008301526107d98185610777565b90506107e860208301846107b0565b9392505050565b600081519050919050565b600082825260208201905092915050565b6000819050602082019050919050565b600082825260208201905092915050565b600061083782610731565b610841818561081b565b935061085181856020860161074d565b61085a81610599565b840191505092915050565b61086e816104d0565b82525050565b60006040830160008301518482036000860152610891828261082c565b91505060208301516108a66020860182610865565b508091505092915050565b60006108bd8383610874565b905092915050565b6000602082019050919050565b60006108dd826107ef565b6108e781856107fa565b9350836020820285016108f98561080b565b8060005b85811015610935578484038952815161091685826108b1565b9450610921836108c5565b925060208a019950506001810190506108fd565b50829750879550505050505092915050565b6000602082019050818103600083015261096181846108d2565b905092915050565b60006020828403121561097f5761097e6104c6565b5b600082013567ffffffffffffffff81111561099d5761099c6104cb565b5b6109a9848285016106a7565b91505092915050565b7f4e487b7100000000000000000000000000000000000000000000000000000000600052602260045260246000fd5b600060028204905060018216806109f957607f821691505b602082108103610a0c57610a0b6109b2565b5b50919050565b60008190508160005260206000209050919050565b60006020601f8301049050919050565b600082821b905092915050565b600060088302610a747fffffffffffffffffffffffffffffffffffffffffffffffffffffffffffffffff82610a37565b610a7e8683610a37565b95508019841693508086168417925050509392505050565b6000819050919050565b6000610abb610ab6610ab1846104d0565b610a96565b6104d0565b9050919050565b6000819050919050565b610ad583610aa0565b610ae9610ae182610ac2565b848454610a44565b825550505050565b600090565b610afe610af1565b610b09818484610acc565b505050565b5b81811015610b2d57610b22600082610af6565b600181019050610b0f565b5050565b601f821115610b7257610b4381610a12565b610b4c84610a27565b81016020851015610b5b578190505b610b6f610b6785610a27565b830182610b0e565b50505b505050565b600082821c905092915050565b6000610b9560001984600802610b77565b1980831691505092915050565b6000610bae8383610b84565b9150826002028217905092915050565b610bc782610731565b67ffffffffffffffff811115610be057610bdf6105aa565b5b610bea82546109e1565b610bf5828285610b31565b600060209050601f831160018114610c285760008415610c16578287015190505b610c208582610ba2565b865550610c88565b601f198416610c3686610a12565b60005b82811015610c5e57848901518255600182019150602085019450602081019050610c39565b86831015610c7b5784890151610c77601f891682610b84565b8355505b6001600288020188555050505b505050505050565b7f4e487b7100000000000000000000000000000000000000000000000000000000600052601160045260246000fd5b6000610cca826104d0565b9150610cd5836104d0565b9250828203905081811115610ced57610cec610c90565b5b92915050565b6000610cfe826104d0565b91507fffffffffffffffffffffffffffffffffffffffffffffffffffffffffffffffff8203610d3057610d2f610c90565b5b600182019050919050565b6000606082019050610d5060008301866107b0565b8181036020830152610d628185610777565b9050610d7160408301846107b0565b949350505050565b600081905092915050565b6000610d8f82610731565b610d998185610d79565b9350610da981856020860161074d565b80840191505092915050565b6000610dc18284610d84565b915081905092915050565b7f4e487b7100000000000000000000000000000000000000000000000000000000600052601260045260246000fd5b6000610e06826104d0565b9150610e11836104d0565b925082610e2157610e20610dcc565b5b82820690509291505056fea26469706673582212200e2898d874aca17203643c939805129333292465dff077326f0e9bb45056b6a364736f6c63430008120033",
  "linkReferences": {},
  "deployedLinkReferences": {}
}